:100000000C9463000C948B000C948B000C948B006C
:100010000C948B000C948B000C948B000C948B0034
:100020000C948B000C948B000C948B000C948B0024
:100030000C948B000C948B000C948B000C948B0014
:100040000C949C040C948B000C9420060C948B0054
:100050000C948B000C948B000C948B000C948B00F4
:100060000C948B000C948B000000000024002700EF
:100070002A0000000000250028002B0000000000DE
:1000800023002600290004040404040404040202DA
:100090000202020203030303030301020408102007
:1000A0004080010204081020010204081020000012
:1000B0000007000201000003040600000000000029
:1000C0000000ED02A50711241FBECFEFD4E0DEBF74
:1000D000CDBF11E0A0E0B1E0E2E5F1E102C00590A2
:1000E0000D92A231B107D9F712E0A2E1B1E001C04F
:1000F0001D92AC30B107E1F710E0C6ECD0E004C0CF
:100100002297FE010E94A308C23CD107C9F70E94B2
:100110002F040C94A7080C940000009731F4DA0126
:100120008D919C91009709F40EC0DC01FB013D917B
:100130002191222319F03217C9F3FACF332331F476
:10014000DA011D921C928827992708951197AF9381
:10015000BF93FB013D912191321771F4332321F4B8
:1001600088279927119702C01E921196FA01A19330
:10017000B0839F918F910895222369F7EACF089564
:10018000772767FD709570930701609306010895C6
:1001900089E060E00E94840528982C9A2C98289881
:1001A0002C9A2C9828982C9A2C9828982C9A2C9831
:1001B00028982C9A2C9828982C9A2C9828982C9A25
:1001C0002C9828982C9A2C9889E061E00E9484054C
:1001D000089589E060E00E9484058091060187FD12
:1001E00002C0289801C0289A2C9A2C9886FD02C03B
:1001F000289801C0289A2C9A2C9885FD02C028982E
:1002000001C0289A2C9A2C9884FD02C0289801C01D
:10021000289A2C9A2C9883FD02C0289801C0289A0D
:100220002C9A2C9882FD02C0289801C0289A2C9AFA
:100230002C9881FD02C0289801C0289A2C9A2C98ED
:1002400080FF08C0289A2C9A2C9889E061E00E94CF
:10025000840508952898F7CFCF93DF93EC0167FDCD
:1002600002C05E9801C05E9A5F9A5F9866FD02C008
:100270005E9801C05E9A5F9A5F9865FD02C05E98C5
:1002800001C05E9A5F9A5F9864FD02C05E9801C0EB
:100290005E9A5F9A5F9863FD02C05E9801C05E9AA5
:1002A0005F9A5F9862FD02C05E9801C05E9A5F9A95
:1002B0005F9861FD02C05E9801C05E9A5F9A5F9888
:1002C00060FF10C05E9A5F9A5F98CE010E94E900BD
:1002D0008AE090E00E941C05CE010E94C800DF91D8
:1002E000CF9108955E98EFCF0F931F93CF93DF9335
:1002F000EC01442311F462606B7F8B01077FCE0118
:10030000B8010E942C01B8016860CE010E942C0146
:10031000CE01B8010E942C01DF91CF911F910F9166
:100320000895DF92EF92FF920F931F937C018B0150
:10033000D42E607F0E94740187E290E00E941C0529
:1003400084E0000F111F8A95E1F71070C701B80112
:100350004D2D0E9474011F910F91FF90EF90DF903F
:100360000895EF92FF920F931F93CF93DF937C0139
:100370008B01C0E0D0E00CC0F801EC0FFD1F6081E4
:10038000772767FD7095C70140E00E949101219693
:10039000F80101900020E9F73197E01BF10BCE172F
:1003A000DF0750F3DF91CF911F910F91FF90EF90F6
:1003B000089541E00E94910167E070E080E090E0E4
:1003C0000E94F204089560EC70E00E94D901089543
:1003D00060E870E00E94D90108950F931F938C018B
:1003E00086E061E00E94640587E061E00E946405A8
:1003F00089E061E00E9464058CE061E00E94640590
:1004000088E061E00E9464056CE870E080E090E0C4
:100410000E94F204C80163E070E041E00E947401B0
:1004200065E070E080E090E00E94F204C80163E0C3
:1004300070E041E00E94740161E070E080E090E0D3
:100440000E94F204C80163E070E041E00E94740180
:10045000C80166E070E00E94D901C80162E070E066
:100460000E94D901C8016CE070E00E94D901C80166
:1004700061E070E00E94D9011F910F910895FC0185
:100480006A3021F06D3011F0662309F460E21282C7
:10049000118267831086E55BFF4F80E481938FE3D1
:1004A0008083EC54F04012861082148213821682EC
:1004B000158281E081870895FC017283618308952C
:1004C000CF93DF93EC0118821616170684F56A3075
:1004D000710569F16D30710521F06115710539F112
:1004E00010C08A85FE01E80FF11D13861A861E8250
:1004F0001D8281E089878883CE010B969C838B8344
:1005000016C08A85FE01E80FF11D63878F5F8A8719
:10051000C45BDF4F9881CC54D040891740F01A86D5
:1005200018821C821B821E821D8281E0898788813D
:10053000813029F4E981FA81309709F009958881A1
:10054000DF91CF910895CF93DF93EC0188818823C9
:10055000F9F0813019F020E030E005C09E01255F00
:100560003F4F82E088838985882359F0BE01695F07
:100570007F4FAE014B5F5F4FC9010E948D009C838E
:100580008B838B819C81892B19F0198681E001C0B6
:1005900080E0DF91CF910895CF93DF93EC010E942B
:1005A000A302882319F420E030E004C081E08987A9
:1005B0002B813C81C901DF91CF910895CF93DF93C7
:1005C000EC010E94A302882329F081E08987EB8156
:1005D000FC818081DF91CF91089582E191E06CE709
:1005E0000E943F028FE591E00E94BF000895EF92C4
:1005F000FF920F931F93CF93DF938BE060E00E94F5
:1006000084050091670110E0C7E0D0E081E0E82EAA
:10061000F12C8CE060E00E9484058AE00E94D10504
:10062000892B41F0C7010C2E02C0880F991F0A9434
:10063000E2F7182B8CE061E00E94840521978FEF90
:10064000CF3FD80731F78CE060E00E9484058091AD
:1006500066011823109367018BE061E00E94840516
:1006600090E080916701801391E0892FDF91CF9115
:100670001F910F91FF90EF9008958091640187FD85
:1006800002C05C9801C05C9A2C9A2C9886FD02C02E
:100690005C9801C05C9A2C9A2C9885FD02C05C98ED
:1006A00001C05C9A2C9A2C9884FD02C05C9801C011
:1006B0005C9A2C9A2C9883FD02C05C9801C05C9ACD
:1006C0002C9A2C9882FD02C05C9801C05C9A2C9AEE
:1006D0002C9881FD02C05C9801C05C9A2C9A2C98E1
:1006E00080FF10C05C9A2C9A2C9885E061E00E94F3
:1006F00084058AE090E00E941C0585E060E00E948D
:10070000840508955C98EFCFEF92FF920F931F93AB
:1007100009C089EF91E00E946A07BC0182E191E083
:100720000E94600289EF91E00E945607882389F7B2
:100730000E94F702882331F089EF91E06091670110
:100740000E9416080E94E40420916801309169011A
:1007500040916A0150916B01621B730B840B950BE6
:10076000695873418040904090F00E94E404609387
:1007700068017093690180936A0190936B018DE029
:1007800061E00E9484058DE060E00E948405809114
:100790006501882341F10E94E4047B018C01809172
:1007A000600190916101A0916201B0916301A80183
:1007B0009701281B390B4A0B5B0B293C310541057E
:1007C00051058CF080916401909165018927809397
:1007D00064010E943D03E0926001F0926101009388
:1007E0006201109363011F910F91FF90EF900895A4
:1007F0000F931F938DE061E00E94640585E061E046
:100800000E94640584E061E00E9464058BE061E081
:100810000E9464058AE060E00E9464058CE061E06B
:100820000E9464050E943D0389EF91E040E052EC94
:1008300061E070E00E945D0682E191E066E374E0B1
:100840000E945C020FE511E0C8010E94ED01C801A1
:1008500060E071E00E94B1011F910F9108950E9424
:100860002A050E94F8030E948403FDCF0F931F9373
:10087000CF93DF9382E191E00E94DE02182F82E1A4
:1008800091E00E94DE02082F82E191E00E94CC02FA
:10089000EC011C3451F11D3444F41233B9F012341C
:1008A00081F1113309F043C007C0123671F11C36D3
:1008B00001F11035E1F539C08FE591E0602F0E941C
:1008C000C0008FE591E00E94E80109C08FE591E04A
:1008D000602F0E94C0008FE591E00E94E3018FE548
:1008E00091E0BE010E94B10122C080916401802B81
:1008F00003C0809164018023809364010E943D03C2
:1009000016C080916501802B03C080916501802312
:10091000809365010E94E40460936001709361011B
:10092000809362019093630102C000936601DF919E
:10093000CF911F910F9108951F920F920FB60F92B2
:1009400011242F933F938F939F93AF93BF938091E5
:10095000700190917101A0917201B0917301309179
:1009600074010196A11DB11D232F2D5F2D3720F09D
:100970002D570196A11DB11D209374018093700124
:1009800090937101A0937201B093730180916C01F7
:1009900090916D01A0916E01B0916F010196A11D22
:1009A000B11D80936C0190936D01A0936E01B09383
:1009B0006F01BF91AF919F918F913F912F910F90B8
:1009C0000FBE0F901F9018958FB7F894209170016B
:1009D0003091710140917201509173018FBFB90143
:1009E000CA010895EF92FF920F931F937B018C0130
:1009F0008FB7F8944091700150917101609172012C
:100A0000709173018FBF2FB7F8948091700190910E
:100A10007101A0917201B09173012FBF841B950BDE
:100A2000A60BB70BE816F9060A071B0760F71F911C
:100A30000F91FF90EF900895019759F0FC01EE0F90
:100A4000FF1FEE0FFF1F32978FB7F8943197F1F722
:100A50008FBF0895789484B5826084BD84B5816029
:100A600084BD85B5826085BD85B5816085BDEEE6B6
:100A7000F0E0808181608083E1E8F0E08081826045
:100A80008083808181608083E0E8F0E08081816004
:100A90008083E1EBF0E0808184608083E0EBF0E034
:100AA000808181608083EAE7F0E0808184608083D8
:100AB0008081826080838081816080838081806882
:100AC00080831092C1000895282F30E0C901865616
:100AD0009F4FFC0194912A573F4FF901849188233D
:100AE00091F0E82FF0E0EE0FFF1FE859FF4FA591BE
:100AF000B491662329F48C91909589238C93089561
:100B00008C91892B8C930895482F50E0CA0182550F
:100B10009F4FFC012491CA0186569F4FFC0194917E
:100B20004A575F4FFA0134913323D1F1222331F137
:100B3000233021F4809180008F7705C0243031F478
:100B4000809180008F7D8093800018C0213019F43F
:100B500084B58F7704C0223021F484B58F7D84BDA5
:100B60000DC0263021F48091B0008F7705C027306A
:100B700029F48091B0008F7D8093B000E32FF0E0E6
:100B8000EE0FFF1FEE58FF4FA591B491662329F495
:100B90008C91909589238C9308958C91892B8C93BB
:100BA0000895682F70E0CB0182559F4FFC0124917E
:100BB000CB0186569F4FFC0144916A577F4FFB0142
:100BC0009491992319F420E030E038C0222331F1C8
:100BD000233021F4809180008F7705C0243031F4D8
:100BE000809180008F7D8093800018C0213019F49F
:100BF00084B58F7704C0223021F484B58F7D84BD05
:100C00000DC0263021F48091B0008F7705C02730C9
:100C100029F48091B0008F7D8093B000892F90E0FF
:100C2000880F991F84589F4FFC01A591B4918C9116
:100C300020E030E0842311F021E030E0C901089584
:100C40001F920F920FB60F9211242F933F934F9341
:100C50005F936F937F938F939F93AF93BF93EF9324
:100C6000FF934091C600E091F501F091F601CF01AC
:100C7000019660E870E00E943D089C018091F701B8
:100C80009091F8012817390739F0EB58FE4F40834F
:100C90003093F6012093F501FF91EF91BF91AF9151
:100CA0009F918F917F916F915F914F913F912F9184
:100CB0000F900FBE0F901F9018955F926F927F92CA
:100CC0008F929F92AF92BF92CF92DF92EF92FF925C
:100CD0000F931F93CF93DF93EC013A014B01413403
:100CE00082E458078FE0680780E078070CF07FC047
:100CF00060E874E88EE190E0A40193010E9472081C
:100D00002150304040405040CA01B90122E030E05B
:100D100040E050E00E94720859016A01A601950165
:100D2000209530954095509594E0220F331F441F35
:100D3000551F9A95D1F760E074E284EF90E00E942D
:100D40007208CA01B9012FEF30E040E050E00E9484
:100D50001E08A40193010E947208C90181509F4F8F
:100D6000181619061CF4522E5A9403C05524539495
:100D7000521A60E079E08DE390E0A40193010E94B3
:100D800072082150304040405040CA01B90122E071
:100D900030E040E050E00E94720820953095409588
:100DA000509583E0220F331F441F551F8A95D1F7BA
:100DB00060E074E284EF90E00E947208CA01B90119
:100DC0002FEF30E040E050E00E941E08A4019301A4
:100DD0000E947208C90181509F4F181619061CF411
:100DE000822F815002C081E0821B851500F5E885C5
:100DF000F98581E090E00A8802C0880F991F0A9463
:100E0000E2F7808360E079E08DE390E0A401930154
:100E10000E9472082150304040405040CA01B90140
:100E200022E030E040E050E00E94720804C0E88513
:100E3000F98510829501EC81FD813083EE81FF817F
:100E40002083EA85FB85208141E050E0CA010E84C1
:100E500002C0880F991F0A94E2F7282B2083EA85A5
:100E6000FB852081CA010F8402C0880F991F0A9454
:100E7000E2F7282B2083EA85FB858081088802C061
:100E8000440F551F0A94E2F7842B8083DF91CF91A2
:100E90001F910F91FF90EF90DF90CF90BF90AF9098
:100EA0009F908F907F906F905F900895DC011296D5
:100EB000ED91FC911397E058FF4F819191918058EB
:100EC0009F4F20813181821B930B60E870E00E946C
:100ED0003D080895CF93DF93DC011296ED91FC91CC
:100EE0001397EF01CE57DF4F48815981E058FF4FEC
:100EF00080819181E058F0408417950719F42FEF15
:100F00003FEF0CC0E40FF51F2081CA01019660E895
:100F100070E00E943D089983888330E0C901DF9129
:100F2000CF910895FC01A085B18521898C9190E035
:100F3000022E02C0959587950A94E2F780FFF6CFBE
:100F40000484F585E02D608308958CE091E0909312
:100F5000FA018093F90185E791E09093FC01809379
:100F6000FB0185EC90E09093FE018093FD0184EC01
:100F700090E0909300028093FF0180EC90E09093CA
:100F800002028093010281EC90E09093040280932E
:100F9000030286EC90E0909306028093050284E0C1
:100FA0008093070283E08093080287E08093090220
:100FB00085E080930A0281E080930B0208950F93ED
:100FC0001F93CF93DF938C01EB0109C02196D801C9
:100FD000ED91FC910190F081E02DC80109956881A7
:100FE0006623A1F7DF91CF911F910F910895EF92A2
:100FF000FF920F931F93CF93DF938C017B01EA0144
:101000000CC0D7016D917D01D801ED91FC9101904B
:10101000F081E02DC80109952197209791F7DF9184
:10102000CF911F910F91FF90EF900895DC01ED910A
:10103000FC910190F081E02D09950895629FD00107
:10104000739FF001829FE00DF11D649FE00DF11D83
:10105000929FF00D839FF00D749FF00D659FF00D32
:101060009927729FB00DE11DF91F639FB00DE11D1F
:10107000F91FBD01CF011124089597FB092E072602
:101080000AD077FD04D049D006D000201AF470951C
:1010900061957F4F0895F6F7909581959F4F08953C
:1010A000A1E21A2EAA1BBB1BFD010DC0AA1FBB1F6C
:1010B000EE1FFF1FA217B307E407F50720F0A21BDE
:1010C000B30BE40BF50B661F771F881F991F1A944B
:1010D00069F760957095809590959B01AC01BD0175
:1010E000CF01089597FB092E05260ED057FD04D099
:1010F000D7DF0AD0001C38F45095409530952195E3
:101100003F4F4F4F5F4F0895F6F79095809570953C
:1011100061957F4F8F4F9F4F0895AA1BBB1B51E1D5
:1011200007C0AA1FBB1FA617B70710F0A61BB70B57
:10113000881F991F5A95A9F780959095BC01CD01FC
:101140000895EE0FFF1F0590F491E02D0994F89497
:02115000FFCFCF
:10115200526561647900FF00000000009207DF071A
:02116200F7078D
:00000001FF
